{
    "_format": "hh-sol-artifact-1",
    "contractName": "LUSDC",
    "sourceName": "contracts/defi-token-upgradeable.sol",
    "abi": [
        {
            "anonymous": false,
            "inputs": [
                {
                    "indexed": true,
                    "internalType": "address",
                    "name": "owner",
                    "type": "address"
                },
                {
                    "indexed": true,
                    "internalType": "address",
                    "name": "spender",
                    "type": "address"
                },
                {
                    "indexed": false,
                    "internalType": "uint256",
                    "name": "value",
                    "type": "uint256"
                }
            ],
            "name": "Approval",
            "type": "event"
        },
        {
            "anonymous": false,
            "inputs": [
                {
                    "indexed": false,
                    "internalType": "uint8",
                    "name": "version",
                    "type": "uint8"
                }
            ],
            "name": "Initialized",
            "type": "event"
        },
        {
            "anonymous": false,
            "inputs": [
                {
                    "indexed": true,
                    "internalType": "address",
                    "name": "previousOwner",
                    "type": "address"
                },
                {
                    "indexed": true,
                    "internalType": "address",
                    "name": "newOwner",
                    "type": "address"
                }
            ],
            "name": "OwnershipTransferred",
            "type": "event"
        },
        {
            "anonymous": false,
            "inputs": [
                {
                    "indexed": false,
                    "internalType": "address",
                    "name": "account",
                    "type": "address"
                }
            ],
            "name": "Paused",
            "type": "event"
        },
        {
            "anonymous": false,
            "inputs": [
                {
                    "indexed": true,
                    "internalType": "bytes32",
                    "name": "role",
                    "type": "bytes32"
                },
                {
                    "indexed": true,
                    "internalType": "bytes32",
                    "name": "previousAdminRole",
                    "type": "bytes32"
                },
                {
                    "indexed": true,
                    "internalType": "bytes32",
                    "name": "newAdminRole",
                    "type": "bytes32"
                }
            ],
            "name": "RoleAdminChanged",
            "type": "event"
        },
        {
            "anonymous": false,
            "inputs": [
                {
                    "indexed": true,
                    "internalType": "bytes32",
                    "name": "role",
                    "type": "bytes32"
                },
                {
                    "indexed": true,
                    "internalType": "address",
                    "name": "account",
                    "type": "address"
                },
                {
                    "indexed": true,
                    "internalType": "address",
                    "name": "sender",
                    "type": "address"
                }
            ],
            "name": "RoleGranted",
            "type": "event"
        },
        {
            "anonymous": false,
            "inputs": [
                {
                    "indexed": true,
                    "internalType": "bytes32",
                    "name": "role",
                    "type": "bytes32"
                },
                {
                    "indexed": true,
                    "internalType": "address",
                    "name": "account",
                    "type": "address"
                },
                {
                    "indexed": true,
                    "internalType": "address",
                    "name": "sender",
                    "type": "address"
                }
            ],
            "name": "RoleRevoked",
            "type": "event"
        },
        {
            "anonymous": false,
            "inputs": [
                {
                    "indexed": true,
                    "internalType": "address",
                    "name": "from",
                    "type": "address"
                },
                {
                    "indexed": true,
                    "internalType": "address",
                    "name": "to",
                    "type": "address"
                },
                {
                    "indexed": false,
                    "internalType": "uint256",
                    "name": "value",
                    "type": "uint256"
                }
            ],
            "name": "Transfer",
            "type": "event"
        },
        {
            "anonymous": false,
            "inputs": [
                {
                    "indexed": false,
                    "internalType": "address",
                    "name": "account",
                    "type": "address"
                }
            ],
            "name": "Unpaused",
            "type": "event"
        },
        {
            "inputs": [],
            "name": "APY",
            "outputs": [
                {
                    "internalType": "uint32",
                    "name": "",
                    "type": "uint32"
                }
            ],
            "stateMutability": "view",
            "type": "function"
        },
        {
            "inputs": [],
            "name": "DEFAULT_ADMIN_ROLE",
            "outputs": [
                {
                    "internalType": "bytes32",
                    "name": "",
                    "type": "bytes32"
                }
            ],
            "stateMutability": "view",
            "type": "function"
        },
        {
            "inputs": [],
            "name": "MINT_ROLE",
            "outputs": [
                {
                    "internalType": "bytes32",
                    "name": "",
                    "type": "bytes32"
                }
            ],
            "stateMutability": "view",
            "type": "function"
        },
        {
            "inputs": [
                {
                    "internalType": "address",
                    "name": "owner",
                    "type": "address"
                },
                {
                    "internalType": "address",
                    "name": "spender",
                    "type": "address"
                }
            ],
            "name": "allowance",
            "outputs": [
                {
                    "internalType": "uint256",
                    "name": "",
                    "type": "uint256"
                }
            ],
            "stateMutability": "view",
            "type": "function"
        },
        {
            "inputs": [
                {
                    "internalType": "address",
                    "name": "spender",
                    "type": "address"
                },
                {
                    "internalType": "uint256",
                    "name": "amount",
                    "type": "uint256"
                }
            ],
            "name": "approve",
            "outputs": [
                {
                    "internalType": "bool",
                    "name": "",
                    "type": "bool"
                }
            ],
            "stateMutability": "nonpayable",
            "type": "function"
        },
        {
            "inputs": [
                {
                    "internalType": "address",
                    "name": "_user",
                    "type": "address"
                }
            ],
            "name": "balanceOf",
            "outputs": [
                {
                    "internalType": "uint256",
                    "name": "",
                    "type": "uint256"
                }
            ],
            "stateMutability": "view",
            "type": "function"
        },
        {
            "inputs": [
                {
                    "internalType": "address",
                    "name": "_account",
                    "type": "address"
                }
            ],
            "name": "blacklist",
            "outputs": [],
            "stateMutability": "nonpayable",
            "type": "function"
        },
        {
            "inputs": [
                {
                    "internalType": "address",
                    "name": "",
                    "type": "address"
                }
            ],
            "name": "blacklisted",
            "outputs": [
                {
                    "internalType": "bool",
                    "name": "",
                    "type": "bool"
                }
            ],
            "stateMutability": "view",
            "type": "function"
        },
        {
            "inputs": [
                {
                    "internalType": "uint256",
                    "name": "amount",
                    "type": "uint256"
                }
            ],
            "name": "burn",
            "outputs": [],
            "stateMutability": "nonpayable",
            "type": "function"
        },
        {
            "inputs": [
                {
                    "internalType": "address",
                    "name": "account",
                    "type": "address"
                },
                {
                    "internalType": "uint256",
                    "name": "amount",
                    "type": "uint256"
                }
            ],
            "name": "burnFrom",
            "outputs": [],
            "stateMutability": "nonpayable",
            "type": "function"
        },
        {
            "inputs": [],
            "name": "decimals",
            "outputs": [
                {
                    "internalType": "uint8",
                    "name": "",
                    "type": "uint8"
                }
            ],
            "stateMutability": "view",
            "type": "function"
        },
        {
            "inputs": [
                {
                    "internalType": "address",
                    "name": "spender",
                    "type": "address"
                },
                {
                    "internalType": "uint256",
                    "name": "subtractedValue",
                    "type": "uint256"
                }
            ],
            "name": "decreaseAllowance",
            "outputs": [
                {
                    "internalType": "bool",
                    "name": "",
                    "type": "bool"
                }
            ],
            "stateMutability": "nonpayable",
            "type": "function"
        },
        {
            "inputs": [
                {
                    "internalType": "bytes32",
                    "name": "role",
                    "type": "bytes32"
                }
            ],
            "name": "getRoleAdmin",
            "outputs": [
                {
                    "internalType": "bytes32",
                    "name": "",
                    "type": "bytes32"
                }
            ],
            "stateMutability": "view",
            "type": "function"
        },
        {
            "inputs": [
                {
                    "internalType": "bytes32",
                    "name": "role",
                    "type": "bytes32"
                },
                {
                    "internalType": "address",
                    "name": "account",
                    "type": "address"
                }
            ],
            "name": "grantRole",
            "outputs": [],
            "stateMutability": "nonpayable",
            "type": "function"
        },
        {
            "inputs": [
                {
                    "internalType": "bytes32",
                    "name": "role",
                    "type": "bytes32"
                },
                {
                    "internalType": "address",
                    "name": "account",
                    "type": "address"
                }
            ],
            "name": "hasRole",
            "outputs": [
                {
                    "internalType": "bool",
                    "name": "",
                    "type": "bool"
                }
            ],
            "stateMutability": "view",
            "type": "function"
        },
        {
            "inputs": [
                {
                    "internalType": "address",
                    "name": "spender",
                    "type": "address"
                },
                {
                    "internalType": "uint256",
                    "name": "addedValue",
                    "type": "uint256"
                }
            ],
            "name": "increaseAllowance",
            "outputs": [
                {
                    "internalType": "bool",
                    "name": "",
                    "type": "bool"
                }
            ],
            "stateMutability": "nonpayable",
            "type": "function"
        },
        {
            "inputs": [],
            "name": "initialize",
            "outputs": [],
            "stateMutability": "nonpayable",
            "type": "function"
        },
        {
            "inputs": [
                {
                    "internalType": "address",
                    "name": "to",
                    "type": "address"
                },
                {
                    "internalType": "uint256",
                    "name": "amount",
                    "type": "uint256"
                }
            ],
            "name": "mint",
            "outputs": [],
            "stateMutability": "nonpayable",
            "type": "function"
        },
        {
            "inputs": [],
            "name": "name",
            "outputs": [
                {
                    "internalType": "string",
                    "name": "",
                    "type": "string"
                }
            ],
            "stateMutability": "view",
            "type": "function"
        },
        {
            "inputs": [],
            "name": "owner",
            "outputs": [
                {
                    "internalType": "address",
                    "name": "",
                    "type": "address"
                }
            ],
            "stateMutability": "view",
            "type": "function"
        },
        {
            "inputs": [],
            "name": "pause",
            "outputs": [],
            "stateMutability": "nonpayable",
            "type": "function"
        },
        {
            "inputs": [],
            "name": "paused",
            "outputs": [
                {
                    "internalType": "bool",
                    "name": "",
                    "type": "bool"
                }
            ],
            "stateMutability": "view",
            "type": "function"
        },
        {
            "inputs": [
                {
                    "internalType": "address",
                    "name": "_user",
                    "type": "address"
                }
            ],
            "name": "principalBalanceOf",
            "outputs": [
                {
                    "internalType": "uint256",
                    "name": "",
                    "type": "uint256"
                }
            ],
            "stateMutability": "view",
            "type": "function"
        },
        {
            "inputs": [],
            "name": "renounceOwnership",
            "outputs": [],
            "stateMutability": "nonpayable",
            "type": "function"
        },
        {
            "inputs": [
                {
                    "internalType": "bytes32",
                    "name": "role",
                    "type": "bytes32"
                },
                {
                    "internalType": "address",
                    "name": "account",
                    "type": "address"
                }
            ],
            "name": "renounceRole",
            "outputs": [],
            "stateMutability": "nonpayable",
            "type": "function"
        },
        {
            "inputs": [
                {
                    "internalType": "bytes32",
                    "name": "role",
                    "type": "bytes32"
                },
                {
                    "internalType": "address",
                    "name": "account",
                    "type": "address"
                }
            ],
            "name": "revokeRole",
            "outputs": [],
            "stateMutability": "nonpayable",
            "type": "function"
        },
        {
            "inputs": [
                {
                    "internalType": "uint16",
                    "name": "_apy",
                    "type": "uint16"
                }
            ],
            "name": "setAPY",
            "outputs": [],
            "stateMutability": "nonpayable",
            "type": "function"
        },
        {
            "inputs": [
                {
                    "internalType": "bytes4",
                    "name": "interfaceId",
                    "type": "bytes4"
                }
            ],
            "name": "supportsInterface",
            "outputs": [
                {
                    "internalType": "bool",
                    "name": "",
                    "type": "bool"
                }
            ],
            "stateMutability": "view",
            "type": "function"
        },
        {
            "inputs": [],
            "name": "symbol",
            "outputs": [
                {
                    "internalType": "string",
                    "name": "",
                    "type": "string"
                }
            ],
            "stateMutability": "view",
            "type": "function"
        },
        {
            "inputs": [],
            "name": "totalSupply",
            "outputs": [
                {
                    "internalType": "uint256",
                    "name": "",
                    "type": "uint256"
                }
            ],
            "stateMutability": "view",
            "type": "function"
        },
        {
            "inputs": [
                {
                    "internalType": "address",
                    "name": "to",
                    "type": "address"
                },
                {
                    "internalType": "uint256",
                    "name": "amount",
                    "type": "uint256"
                }
            ],
            "name": "transfer",
            "outputs": [
                {
                    "internalType": "bool",
                    "name": "",
                    "type": "bool"
                }
            ],
            "stateMutability": "nonpayable",
            "type": "function"
        },
        {
            "inputs": [
                {
                    "internalType": "address",
                    "name": "from",
                    "type": "address"
                },
                {
                    "internalType": "address",
                    "name": "to",
                    "type": "address"
                },
                {
                    "internalType": "uint256",
                    "name": "amount",
                    "type": "uint256"
                }
            ],
            "name": "transferFrom",
            "outputs": [
                {
                    "internalType": "bool",
                    "name": "",
                    "type": "bool"
                }
            ],
            "stateMutability": "nonpayable",
            "type": "function"
        },
        {
            "inputs": [
                {
                    "internalType": "address",
                    "name": "newOwner",
                    "type": "address"
                }
            ],
            "name": "transferOwnership",
            "outputs": [],
            "stateMutability": "nonpayable",
            "type": "function"
        },
        {
            "inputs": [
                {
                    "internalType": "address",
                    "name": "_account",
                    "type": "address"
                }
            ],
            "name": "unBlacklist",
            "outputs": [],
            "stateMutability": "nonpayable",
            "type": "function"
        },
        {
            "inputs": [],
            "name": "unpause",
            "outputs": [],
            "stateMutability": "nonpayable",
            "type": "function"
        }
    ],
    "bytecode": "0x608060405234801561001057600080fd5b50613c07806100206000396000f3fe608060405234801561001057600080fd5b50600436106102115760003560e01c8063715018a611610125578063a9059cbb116100ad578063dd62ed3e1161007c578063dd62ed3e14610600578063e9a9c85014610630578063ef8bd3051461064e578063f2fde38b1461066c578063f9f92be41461068857610211565b8063a9059cbb14610554578063c634dfaa14610584578063d547741f146105b4578063dbac26e9146105d057610211565b80638da5cb5b116100f45780638da5cb5b1461049a57806391d14854146104b857806395d89b41146104e8578063a217fddf14610506578063a457c2d71461052457610211565b8063715018a61461046057806379cc67901461046a5780638129fc1c146104865780638456cb591461049057610211565b80632f2ff15d116101a85780633f4ba83a116101775780633f4ba83a146103d057806340c10f19146103da57806342966c68146103f65780635c975abb1461041257806370a082311461043057610211565b80632f2ff15d1461034a578063313ce5671461036657806336568abe1461038457806339509351146103a057610211565b80631a895266116101e45780631a895266146102b257806323b872dd146102ce578063248a9ca3146102fe57806324b3f6981461032e57610211565b806301ffc9a71461021657806306fdde0314610246578063095ea7b31461026457806318160ddd14610294575b600080fd5b610230600480360381019061022b9190612a91565b6106a4565b60405161023d9190612f1f565b60405180910390f35b61024e61071e565b60405161025b9190612f70565b60405180910390f35b61027e600480360381019061027991906129e4565b6107b0565b60405161028b9190612f1f565b60405180910390f35b61029c6107d3565b6040516102a991906131f2565b60405180910390f35b6102cc60048036038101906102c79190612924565b6107dd565b005b6102e860048036038101906102e39190612991565b610841565b6040516102f59190612f1f565b60405180910390f35b61031860048036038101906103139190612a24565b610870565b6040516103259190612f3a565b60405180910390f35b61034860048036038101906103439190612abe565b610891565b005b610364600480360381019061035f9190612a51565b61092f565b005b61036e610950565b60405161037b9190613228565b60405180910390f35b61039e60048036038101906103999190612a51565b610959565b005b6103ba60048036038101906103b591906129e4565b6109dc565b6040516103c79190612f1f565b60405180910390f35b6103d8610a13565b005b6103f460048036038101906103ef91906129e4565b610a25565b005b610410600480360381019061040b9190612aeb565b610aa2565b005b61041a610ab6565b6040516104279190612f1f565b60405180910390f35b61044a60048036038101906104459190612924565b610acd565b60405161045791906131f2565b60405180910390f35b610468610b54565b005b610484600480360381019061047f91906129e4565b610b68565b005b61048e610b91565b005b610498610d8b565b005b6104a2610d9d565b6040516104af9190612f04565b60405180910390f35b6104d260048036038101906104cd9190612a51565b610dc7565b6040516104df9190612f1f565b60405180910390f35b6104f0610e33565b6040516104fd9190612f70565b60405180910390f35b61050e610ec5565b60405161051b9190612f3a565b60405180910390f35b61053e600480360381019061053991906129e4565b610ecc565b60405161054b9190612f1f565b60405180910390f35b61056e600480360381019061056991906129e4565b610f43565b60405161057b9190612f1f565b60405180910390f35b61059e60048036038101906105999190612924565b610f66565b6040516105ab91906131f2565b60405180910390f35b6105ce60048036038101906105c99190612a51565b610f78565b005b6105ea60048036038101906105e59190612924565b610f99565b6040516105f79190612f1f565b60405180910390f35b61061a60048036038101906106159190612951565b610fba565b60405161062791906131f2565b60405180910390f35b610638611041565b6040516106459190612f3a565b60405180910390f35b610656611065565b604051610663919061320d565b60405180910390f35b61068660048036038101906106819190612924565b61107c565b005b6106a2600480360381019061069d9190612924565b611100565b005b60007f7965db0b000000000000000000000000000000000000000000000000000000007bffffffffffffffffffffffffffffffffffffffffffffffffffffffff1916827bffffffffffffffffffffffffffffffffffffffffffffffffffffffff19161480610717575061071682611164565b5b9050919050565b60606036805461072d90613497565b80601f016020809104026020016040519081016040528092919081815260200182805461075990613497565b80156107a65780601f1061077b576101008083540402835291602001916107a6565b820191906000526020600020905b81548152906001019060200180831161078957829003601f168201915b5050505050905090565b6000806107bb6111ce565b90506107c88185856111d6565b600191505092915050565b6000603554905090565b6107e56113a1565b600061016260008373ffffffffffffffffffffffffffffffffffffffff1673ffffffffffffffffffffffffffffffffffffffff16815260200190815260200160002060006101000a81548160ff02191690831515021790555050565b60008061084c6111ce565b905061085985828561141f565b6108648585856114ab565b60019150509392505050565b600061012d6000838152602001908152602001600020600101549050919050565b6108996113a1565b60005b61016180549050811015610905576108f261016182815481106108c2576108c161359f565b5b9060005260206000200160009054906101000a900473ffffffffffffffffffffffffffffffffffffffff166114cd565b80806108fd906134c9565b91505061089c565b508061ffff1661015f60006101000a81548163ffffffff021916908363ffffffff16021790555050565b61093882610870565b61094181611605565b61094b8383611619565b505050565b60006012905090565b6109616111ce565b73ffffffffffffffffffffffffffffffffffffffff168173ffffffffffffffffffffffffffffffffffffffff16146109ce576040517f08c379a00000000000000000000000000000000000000000000000000000000081526004016109c5906131b2565b60405180910390fd5b6109d882826116fb565b5050565b6000806109e76111ce565b9050610a088185856109f98589610fba565b610a03919061326a565b6111d6565b600191505092915050565b610a1b6113a1565b610a236117de565b565b7f154c00819833dac601ee5ddded6fda79d9d8b506b911b3dbd54cdb95fe6c3686610a4f81611605565b610a57611841565b610a817f154c00819833dac601ee5ddded6fda79d9d8b506b911b3dbd54cdb95fe6c368633610dc7565b610a8a57600080fd5b610a93836114cd565b610a9d838361188b565b505050565b610ab3610aad6111ce565b826119e3565b50565b6000609760009054906101000a900460ff16905090565b600080610ad983611bb3565b90506000811415610aee576000915050610b4f565b6000610af984611bfc565b905081683635c9adc5dea0000061015f60009054906101000a900463ffffffff1663ffffffff168385610b2c91906132f1565b610b3691906132f1565b610b4091906132c0565b610b4a919061326a565b925050505b919050565b610b5c6113a1565b610b666000611ccb565b565b610b71826114cd565b610b8382610b7d6111ce565b8361141f565b610b8d82826119e3565b5050565b60008060019054906101000a900460ff16159050808015610bc25750600160008054906101000a900460ff1660ff16105b80610bef5750610bd130611d91565b158015610bee5750600160008054906101000a900460ff1660ff16145b5b610c2e576040517f08c379a0000000000000000000000000000000000000000000000000000000008152600401610c25906130b2565b60405180910390fd5b60016000806101000a81548160ff021916908360ff1602179055508015610c6b576001600060016101000a81548160ff0219169083151502179055505b610cdf6040518060400160405280600581526020017f4c555344430000000000000000000000000000000000000000000000000000008152506040518060400160405280600581526020017f4c55534443000000000000000000000000000000000000000000000000000000815250611db4565b610ce7611e11565b610cef611e6a565b610cf7611ebb565b610cff611f14565b610d0c6000801b33611f65565b603261015f60006101000a81548163ffffffff021916908363ffffffff1602179055508015610d885760008060016101000a81548160ff0219169083151502179055507f7f26b83ff96e1f2b6a682f133852f6798a09c465da95921460cefb38474024986001604051610d7f9190612f55565b60405180910390a15b50565b610d936113a1565b610d9b611f73565b565b600060c960009054906101000a900473ffffffffffffffffffffffffffffffffffffffff16905090565b600061012d600084815260200190815260200160002060000160008373ffffffffffffffffffffffffffffffffffffffff1673ffffffffffffffffffffffffffffffffffffffff16815260200190815260200160002060009054906101000a900460ff16905092915050565b606060378054610e4290613497565b80601f0160208091040260200160405190810160405280929190818152602001828054610e6e90613497565b8015610ebb5780601f10610e9057610100808354040283529160200191610ebb565b820191906000526020600020905b815481529060010190602001808311610e9e57829003601f168201915b5050505050905090565b6000801b81565b600080610ed76111ce565b90506000610ee58286610fba565b905083811015610f2a576040517f08c379a0000000000000000000000000000000000000000000000000000000008152600401610f2190613192565b60405180910390fd5b610f3782868684036111d6565b60019250505092915050565b600080610f4e6111ce565b9050610f5b8185856114ab565b600191505092915050565b6000610f7182611bb3565b9050919050565b610f8182610870565b610f8a81611605565b610f9483836116fb565b505050565b6101626020528060005260406000206000915054906101000a900460ff1681565b6000603460008473ffffffffffffffffffffffffffffffffffffffff1673ffffffffffffffffffffffffffffffffffffffff16815260200190815260200160002060008373ffffffffffffffffffffffffffffffffffffffff1673ffffffffffffffffffffffffffffffffffffffff16815260200190815260200160002054905092915050565b7f154c00819833dac601ee5ddded6fda79d9d8b506b911b3dbd54cdb95fe6c368681565b61015f60009054906101000a900463ffffffff1681565b6110846113a1565b600073ffffffffffffffffffffffffffffffffffffffff168173ffffffffffffffffffffffffffffffffffffffff1614156110f4576040517f08c379a00000000000000000000000000000000000000000000000000000000081526004016110eb90613012565b60405180910390fd5b6110fd81611ccb565b50565b6111086113a1565b600161016260008373ffffffffffffffffffffffffffffffffffffffff1673ffffffffffffffffffffffffffffffffffffffff16815260200190815260200160002060006101000a81548160ff02191690831515021790555050565b60007f01ffc9a7000000000000000000000000000000000000000000000000000000007bffffffffffffffffffffffffffffffffffffffffffffffffffffffff1916827bffffffffffffffffffffffffffffffffffffffffffffffffffffffff1916149050919050565b600033905090565b600073ffffffffffffffffffffffffffffffffffffffff168373ffffffffffffffffffffffffffffffffffffffff161415611246576040517f08c379a000000000000000000000000000000000000000000000000000000000815260040161123d90613132565b60405180910390fd5b600073ffffffffffffffffffffffffffffffffffffffff168273ffffffffffffffffffffffffffffffffffffffff1614156112b6576040517f08c379a00000000000000000000000000000000000000000000000000000000081526004016112ad90613032565b60405180910390fd5b80603460008573ffffffffffffffffffffffffffffffffffffffff1673ffffffffffffffffffffffffffffffffffffffff16815260200190815260200160002060008473ffffffffffffffffffffffffffffffffffffffff1673ffffffffffffffffffffffffffffffffffffffff168152602001908152602001600020819055508173ffffffffffffffffffffffffffffffffffffffff168373ffffffffffffffffffffffffffffffffffffffff167f8c5be1e5ebec7d5bd14f71427d1e84f3dd0314c0f7b2291e5b200ac8c7c3b9258360405161139491906131f2565b60405180910390a3505050565b6113a96111ce565b73ffffffffffffffffffffffffffffffffffffffff166113c7610d9d565b73ffffffffffffffffffffffffffffffffffffffff161461141d576040517f08c379a0000000000000000000000000000000000000000000000000000000008152600401611414906130d2565b60405180910390fd5b565b600061142b8484610fba565b90507fffffffffffffffffffffffffffffffffffffffffffffffffffffffffffffffff81146114a55781811015611497576040517f08c379a000000000000000000000000000000000000000000000000000000000815260040161148e90613052565b60405180910390fd5b6114a484848484036111d6565b5b50505050565b6114b4836114cd565b6114bd826114cd565b6114c8838383611fd6565b505050565b60006114d882611bb3565b90506000816114e684610acd565b6114f0919061334b565b9050600061016060008573ffffffffffffffffffffffffffffffffffffffff1673ffffffffffffffffffffffffffffffffffffffff1681526020019081526020016000205414156115a057610161839080600181540180825580915050600190039060005260206000200160009091909190916101000a81548173ffffffffffffffffffffffffffffffffffffffff021916908373ffffffffffffffffffffffffffffffffffffffff1602179055505b4261016060008573ffffffffffffffffffffffffffffffffffffffff1673ffffffffffffffffffffffffffffffffffffffff1681526020019081526020016000208190555060008214156115f5575050611602565b6115ff838261188b565b50505b50565b611616816116116111ce565b612251565b50565b6116238282610dc7565b6116f757600161012d600084815260200190815260200160002060000160008373ffffffffffffffffffffffffffffffffffffffff1673ffffffffffffffffffffffffffffffffffffffff16815260200190815260200160002060006101000a81548160ff02191690831515021790555061169c6111ce565b73ffffffffffffffffffffffffffffffffffffffff168173ffffffffffffffffffffffffffffffffffffffff16837f2f8788117e7eff1d82e926ec794901d17c78024a50270940304540a733656f0d60405160405180910390a45b5050565b6117058282610dc7565b156117da57600061012d600084815260200190815260200160002060000160008373ffffffffffffffffffffffffffffffffffffffff1673ffffffffffffffffffffffffffffffffffffffff16815260200190815260200160002060006101000a81548160ff02191690831515021790555061177f6111ce565b73ffffffffffffffffffffffffffffffffffffffff168173ffffffffffffffffffffffffffffffffffffffff16837ff6391f5c32d9c69d2a47ea670b442974b53935d1edc7fd64eb21e047a839171b60405160405180910390a45b5050565b6117e66122d6565b6000609760006101000a81548160ff0219169083151502179055507f5db9ee0a495bf2e6ff9c91a7834c1ba4fdd244a5e8aa4e537bd38aeae4b073aa61182a6111ce565b6040516118379190612f04565b60405180910390a1565b611849610ab6565b15611889576040517f08c379a000000000000000000000000000000000000000000000000000000000815260040161188090613092565b60405180910390fd5b565b600073ffffffffffffffffffffffffffffffffffffffff168273ffffffffffffffffffffffffffffffffffffffff1614156118fb576040517f08c379a00000000000000000000000000000000000000000000000000000000081526004016118f2906131d2565b60405180910390fd5b6119076000838361231f565b8060356000828254611919919061326a565b9250508190555080603360008473ffffffffffffffffffffffffffffffffffffffff1673ffffffffffffffffffffffffffffffffffffffff168152602001908152602001600020600082825401925050819055508173ffffffffffffffffffffffffffffffffffffffff16600073ffffffffffffffffffffffffffffffffffffffff167fddf252ad1be2c89b69c2b068fc378daa952ba7f163c4a11628f55a4df523b3ef836040516119cb91906131f2565b60405180910390a36119df60008383612457565b5050565b600073ffffffffffffffffffffffffffffffffffffffff168273ffffffffffffffffffffffffffffffffffffffff161415611a53576040517f08c379a0000000000000000000000000000000000000000000000000000000008152600401611a4a906130f2565b60405180910390fd5b611a5f8260008361231f565b6000603360008473ffffffffffffffffffffffffffffffffffffffff1673ffffffffffffffffffffffffffffffffffffffff16815260200190815260200160002054905081811015611ae6576040517f08c379a0000000000000000000000000000000000000000000000000000000008152600401611add90612ff2565b60405180910390fd5b818103603360008573ffffffffffffffffffffffffffffffffffffffff1673ffffffffffffffffffffffffffffffffffffffff1681526020019081526020016000208190555081603560008282540392505081905550600073ffffffffffffffffffffffffffffffffffffffff168373ffffffffffffffffffffffffffffffffffffffff167fddf252ad1be2c89b69c2b068fc378daa952ba7f163c4a11628f55a4df523b3ef84604051611b9a91906131f2565b60405180910390a3611bae83600084612457565b505050565b6000603360008373ffffffffffffffffffffffffffffffffffffffff1673ffffffffffffffffffffffffffffffffffffffff168152602001908152602001600020549050919050565b60008061016060008473ffffffffffffffffffffffffffffffffffffffff1673ffffffffffffffffffffffffffffffffffffffff168152602001908152602001600020541415611c4f5760009050611cc6565b600061016060008473ffffffffffffffffffffffffffffffffffffffff1673ffffffffffffffffffffffffffffffffffffffff1681526020019081526020016000205442611c9d919061334b565b90506301e13380670de0b6b3a764000082611cb891906132f1565b611cc291906132c0565b9150505b919050565b600060c960009054906101000a900473ffffffffffffffffffffffffffffffffffffffff1690508160c960006101000a81548173ffffffffffffffffffffffffffffffffffffffff021916908373ffffffffffffffffffffffffffffffffffffffff1602179055508173ffffffffffffffffffffffffffffffffffffffff168173ffffffffffffffffffffffffffffffffffffffff167f8be0079c531659141344cd1fd0a4f28419497f9722a3daafe3b4186f6b6457e060405160405180910390a35050565b6000808273ffffffffffffffffffffffffffffffffffffffff163b119050919050565b600060019054906101000a900460ff16611e03576040517f08c379a0000000000000000000000000000000000000000000000000000000008152600401611dfa90613152565b60405180910390fd5b611e0d828261245c565b5050565b600060019054906101000a900460ff16611e60576040517f08c379a0000000000000000000000000000000000000000000000000000000008152600401611e5790613152565b60405180910390fd5b611e686124dd565b565b600060019054906101000a900460ff16611eb9576040517f08c379a0000000000000000000000000000000000000000000000000000000008152600401611eb090613152565b60405180910390fd5b565b600060019054906101000a900460ff16611f0a576040517f08c379a0000000000000000000000000000000000000000000000000000000008152600401611f0190613152565b60405180910390fd5b611f1261253e565b565b600060019054906101000a900460ff16611f63576040517f08c379a0000000000000000000000000000000000000000000000000000000008152600401611f5a90613152565b60405180910390fd5b565b611f6f8282611619565b5050565b611f7b611841565b6001609760006101000a81548160ff0219169083151502179055507f62e78cea01bee320cd4e420270b5ea74000d11b0c9f74754ebdbfc544b05a258611fbf6111ce565b604051611fcc9190612f04565b60405180910390a1565b600073ffffffffffffffffffffffffffffffffffffffff168373ffffffffffffffffffffffffffffffffffffffff161415612046576040517f08c379a000000000000000000000000000000000000000000000000000000000815260040161203d90613112565b60405180910390fd5b600073ffffffffffffffffffffffffffffffffffffffff168273ffffffffffffffffffffffffffffffffffffffff1614156120b6576040517f08c379a00000000000000000000000000000000000000000000000000000000081526004016120ad90612fb2565b60405180910390fd5b6120c183838361231f565b6000603360008573ffffffffffffffffffffffffffffffffffffffff1673ffffffffffffffffffffffffffffffffffffffff16815260200190815260200160002054905081811015612148576040517f08c379a000000000000000000000000000000000000000000000000000000000815260040161213f90613072565b60405180910390fd5b818103603360008673ffffffffffffffffffffffffffffffffffffffff1673ffffffffffffffffffffffffffffffffffffffff1681526020019081526020016000208190555081603360008573ffffffffffffffffffffffffffffffffffffffff1673ffffffffffffffffffffffffffffffffffffffff168152602001908152602001600020600082825401925050819055508273ffffffffffffffffffffffffffffffffffffffff168473ffffffffffffffffffffffffffffffffffffffff167fddf252ad1be2c89b69c2b068fc378daa952ba7f163c4a11628f55a4df523b3ef8460405161223891906131f2565b60405180910390a361224b848484612457565b50505050565b61225b8282610dc7565b6122d257612268816125aa565b6122768360001c60206125d7565b604051602001612287929190612eca565b6040516020818303038152906040526040517f08c379a00000000000000000000000000000000000000000000000000000000081526004016122c99190612f70565b60405180910390fd5b5050565b6122de610ab6565b61231d576040517f08c379a000000000000000000000000000000000000000000000000000000000815260040161231490612fd2565b60405180910390fd5b565b612327611841565b8261016260008273ffffffffffffffffffffffffffffffffffffffff1673ffffffffffffffffffffffffffffffffffffffff16815260200190815260200160002060009054906101000a900460ff16156123b6576040517f08c379a00000000000000000000000000000000000000000000000000000000081526004016123ad90613172565b60405180910390fd5b8261016260008273ffffffffffffffffffffffffffffffffffffffff1673ffffffffffffffffffffffffffffffffffffffff16815260200190815260200160002060009054906101000a900460ff1615612445576040517f08c379a000000000000000000000000000000000000000000000000000000000815260040161243c90613172565b60405180910390fd5b612450858585612813565b5050505050565b505050565b600060019054906101000a900460ff166124ab576040517f08c379a00000000000000000000000000000000000000000000000000000000081526004016124a290613152565b60405180910390fd5b81603690805190602001906124c1929190612818565b5080603790805190602001906124d8929190612818565b505050565b600060019054906101000a900460ff1661252c576040517f08c379a000000000000000000000000000000000000000000000000000000000815260040161252390613152565b60405180910390fd5b61253c6125376111ce565b611ccb565b565b600060019054906101000a900460ff1661258d576040517f08c379a000000000000000000000000000000000000000000000000000000000815260040161258490613152565b60405180910390fd5b6000609760006101000a81548160ff021916908315150217905550565b60606125d08273ffffffffffffffffffffffffffffffffffffffff16601460ff166125d7565b9050919050565b6060600060028360026125ea91906132f1565b6125f4919061326a565b67ffffffffffffffff81111561260d5761260c6135ce565b5b6040519080825280601f01601f19166020018201604052801561263f5781602001600182028036833780820191505090505b5090507f3000000000000000000000000000000000000000000000000000000000000000816000815181106126775761267661359f565b5b60200101907effffffffffffffffffffffffffffffffffffffffffffffffffffffffffffff1916908160001a9053507f7800000000000000000000000000000000000000000000000000000000000000816001815181106126db576126da61359f565b5b60200101907effffffffffffffffffffffffffffffffffffffffffffffffffffffffffffff1916908160001a9053506000600184600261271b91906132f1565b612725919061326a565b90505b60018111156127c5577f3031323334353637383961626364656600000000000000000000000000000000600f8616601081106127675761276661359f565b5b1a60f81b82828151811061277e5761277d61359f565b5b60200101907effffffffffffffffffffffffffffffffffffffffffffffffffffffffffffff1916908160001a905350600485901c9450806127be9061346d565b9050612728565b5060008414612809576040517f08c379a000000000000000000000000000000000000000000000000000000000815260040161280090612f92565b60405180910390fd5b8091505092915050565b505050565b82805461282490613497565b90600052602060002090601f016020900481019282612846576000855561288d565b82601f1061285f57805160ff191683800117855561288d565b8280016001018555821561288d579182015b8281111561288c578251825591602001919060010190612871565b5b50905061289a919061289e565b5090565b5b808211156128b757600081600090555060010161289f565b5090565b6000813590506128ca81613b5e565b92915050565b6000813590506128df81613b75565b92915050565b6000813590506128f481613b8c565b92915050565b60008135905061290981613ba3565b92915050565b60008135905061291e81613bba565b92915050565b60006020828403121561293a576129396135fd565b5b6000612948848285016128bb565b91505092915050565b60008060408385031215612968576129676135fd565b5b6000612976858286016128bb565b9250506020612987858286016128bb565b9150509250929050565b6000806000606084860312156129aa576129a96135fd565b5b60006129b8868287016128bb565b93505060206129c9868287016128bb565b92505060406129da8682870161290f565b9150509250925092565b600080604083850312156129fb576129fa6135fd565b5b6000612a09858286016128bb565b9250506020612a1a8582860161290f565b9150509250929050565b600060208284031215612a3a57612a396135fd565b5b6000612a48848285016128d0565b91505092915050565b60008060408385031215612a6857612a676135fd565b5b6000612a76858286016128d0565b9250506020612a87858286016128bb565b9150509250929050565b600060208284031215612aa757612aa66135fd565b5b6000612ab5848285016128e5565b91505092915050565b600060208284031215612ad457612ad36135fd565b5b6000612ae2848285016128fa565b91505092915050565b600060208284031215612b0157612b006135fd565b5b6000612b0f8482850161290f565b91505092915050565b612b218161337f565b82525050565b612b3081613391565b82525050565b612b3f8161339d565b82525050565b612b4e81613428565b82525050565b6000612b5f82613243565b612b69818561324e565b9350612b7981856020860161343a565b612b8281613602565b840191505092915050565b6000612b9882613243565b612ba2818561325f565b9350612bb281856020860161343a565b80840191505092915050565b6000612bcb60208361324e565b9150612bd682613613565b602082019050919050565b6000612bee60238361324e565b9150612bf98261363c565b604082019050919050565b6000612c1160148361324e565b9150612c1c8261368b565b602082019050919050565b6000612c3460228361324e565b9150612c3f826136b4565b604082019050919050565b6000612c5760268361324e565b9150612c6282613703565b604082019050919050565b6000612c7a60228361324e565b9150612c8582613752565b604082019050919050565b6000612c9d601d8361324e565b9150612ca8826137a1565b602082019050919050565b6000612cc060268361324e565b9150612ccb826137ca565b604082019050919050565b6000612ce360108361324e565b9150612cee82613819565b602082019050919050565b6000612d06602e8361324e565b9150612d1182613842565b604082019050919050565b6000612d2960208361324e565b9150612d3482613891565b602082019050919050565b6000612d4c60218361324e565b9150612d57826138ba565b604082019050919050565b6000612d6f60258361324e565b9150612d7a82613909565b604082019050919050565b6000612d9260248361324e565b9150612d9d82613958565b604082019050919050565b6000612db5602b8361324e565b9150612dc0826139a7565b604082019050919050565b6000612dd860178361325f565b9150612de3826139f6565b601782019050919050565b6000612dfb60258361324e565b9150612e0682613a1f565b604082019050919050565b6000612e1e60258361324e565b9150612e2982613a6e565b604082019050919050565b6000612e4160118361325f565b9150612e4c82613abd565b601182019050919050565b6000612e64602f8361324e565b9150612e6f82613ae6565b604082019050919050565b6000612e87601f8361324e565b9150612e9282613b35565b602082019050919050565b612ea681613401565b82525050565b612eb58161340b565b82525050565b612ec48161341b565b82525050565b6000612ed582612dcb565b9150612ee18285612b8d565b9150612eec82612e34565b9150612ef88284612b8d565b91508190509392505050565b6000602082019050612f196000830184612b18565b92915050565b6000602082019050612f346000830184612b27565b92915050565b6000602082019050612f4f6000830184612b36565b92915050565b6000602082019050612f6a6000830184612b45565b92915050565b60006020820190508181036000830152612f8a8184612b54565b905092915050565b60006020820190508181036000830152612fab81612bbe565b9050919050565b60006020820190508181036000830152612fcb81612be1565b9050919050565b60006020820190508181036000830152612feb81612c04565b9050919050565b6000602082019050818103600083015261300b81612c27565b9050919050565b6000602082019050818103600083015261302b81612c4a565b9050919050565b6000602082019050818103600083015261304b81612c6d565b9050919050565b6000602082019050818103600083015261306b81612c90565b9050919050565b6000602082019050818103600083015261308b81612cb3565b9050919050565b600060208201905081810360008301526130ab81612cd6565b9050919050565b600060208201905081810360008301526130cb81612cf9565b9050919050565b600060208201905081810360008301526130eb81612d1c565b9050919050565b6000602082019050818103600083015261310b81612d3f565b9050919050565b6000602082019050818103600083015261312b81612d62565b9050919050565b6000602082019050818103600083015261314b81612d85565b9050919050565b6000602082019050818103600083015261316b81612da8565b9050919050565b6000602082019050818103600083015261318b81612dee565b9050919050565b600060208201905081810360008301526131ab81612e11565b9050919050565b600060208201905081810360008301526131cb81612e57565b9050919050565b600060208201905081810360008301526131eb81612e7a565b9050919050565b60006020820190506132076000830184612e9d565b92915050565b60006020820190506132226000830184612eac565b92915050565b600060208201905061323d6000830184612ebb565b92915050565b600081519050919050565b600082825260208201905092915050565b600081905092915050565b600061327582613401565b915061328083613401565b9250827fffffffffffffffffffffffffffffffffffffffffffffffffffffffffffffffff038211156132b5576132b4613512565b5b828201905092915050565b60006132cb82613401565b91506132d683613401565b9250826132e6576132e5613541565b5b828204905092915050565b60006132fc82613401565b915061330783613401565b9250817fffffffffffffffffffffffffffffffffffffffffffffffffffffffffffffffff04831182151516156133405761333f613512565b5b828202905092915050565b600061335682613401565b915061336183613401565b92508282101561337457613373613512565b5b828203905092915050565b600061338a826133e1565b9050919050565b60008115159050919050565b6000819050919050565b60007fffffffff0000000000000000000000000000000000000000000000000000000082169050919050565b600061ffff82169050919050565b600073ffffffffffffffffffffffffffffffffffffffff82169050919050565b6000819050919050565b600063ffffffff82169050919050565b600060ff82169050919050565b60006134338261341b565b9050919050565b60005b8381101561345857808201518184015260208101905061343d565b83811115613467576000848401525b50505050565b600061347882613401565b9150600082141561348c5761348b613512565b5b600182039050919050565b600060028204905060018216806134af57607f821691505b602082108114156134c3576134c2613570565b5b50919050565b60006134d482613401565b91507fffffffffffffffffffffffffffffffffffffffffffffffffffffffffffffffff82141561350757613506613512565b5b600182019050919050565b7f4e487b7100000000000000000000000000000000000000000000000000000000600052601160045260246000fd5b7f4e487b7100000000000000000000000000000000000000000000000000000000600052601260045260246000fd5b7f4e487b7100000000000000000000000000000000000000000000000000000000600052602260045260246000fd5b7f4e487b7100000000000000000000000000000000000000000000000000000000600052603260045260246000fd5b7f4e487b7100000000000000000000000000000000000000000000000000000000600052604160045260246000fd5b600080fd5b6000601f19601f8301169050919050565b7f537472696e67733a20686578206c656e67746820696e73756666696369656e74600082015250565b7f45524332303a207472616e7366657220746f20746865207a65726f206164647260008201527f6573730000000000000000000000000000000000000000000000000000000000602082015250565b7f5061757361626c653a206e6f7420706175736564000000000000000000000000600082015250565b7f45524332303a206275726e20616d6f756e7420657863656564732062616c616e60008201527f6365000000000000000000000000000000000000000000000000000000000000602082015250565b7f4f776e61626c653a206e6577206f776e657220697320746865207a65726f206160008201527f6464726573730000000000000000000000000000000000000000000000000000602082015250565b7f45524332303a20617070726f766520746f20746865207a65726f20616464726560008201527f7373000000000000000000000000000000000000000000000000000000000000602082015250565b7f45524332303a20696e73756666696369656e7420616c6c6f77616e6365000000600082015250565b7f45524332303a207472616e7366657220616d6f756e742065786365656473206260008201527f616c616e63650000000000000000000000000000000000000000000000000000602082015250565b7f5061757361626c653a2070617573656400000000000000000000000000000000600082015250565b7f496e697469616c697a61626c653a20636f6e747261637420697320616c72656160008201527f647920696e697469616c697a6564000000000000000000000000000000000000602082015250565b7f4f776e61626c653a2063616c6c6572206973206e6f7420746865206f776e6572600082015250565b7f45524332303a206275726e2066726f6d20746865207a65726f2061646472657360008201527f7300000000000000000000000000000000000000000000000000000000000000602082015250565b7f45524332303a207472616e736665722066726f6d20746865207a65726f20616460008201527f6472657373000000000000000000000000000000000000000000000000000000602082015250565b7f45524332303a20617070726f76652066726f6d20746865207a65726f2061646460008201527f7265737300000000000000000000000000000000000000000000000000000000602082015250565b7f496e697469616c697a61626c653a20636f6e7472616374206973206e6f74206960008201527f6e697469616c697a696e67000000000000000000000000000000000000000000602082015250565b7f416363657373436f6e74726f6c3a206163636f756e7420000000000000000000600082015250565b7f426c61636b6c69737461626c653a206163636f756e7420697320626c61636b6c60008201527f6973746564000000000000000000000000000000000000000000000000000000602082015250565b7f45524332303a2064656372656173656420616c6c6f77616e63652062656c6f7760008201527f207a65726f000000000000000000000000000000000000000000000000000000602082015250565b7f206973206d697373696e6720726f6c6520000000000000000000000000000000600082015250565b7f416363657373436f6e74726f6c3a2063616e206f6e6c792072656e6f756e636560008201527f20726f6c657320666f722073656c660000000000000000000000000000000000602082015250565b7f45524332303a206d696e7420746f20746865207a65726f206164647265737300600082015250565b613b678161337f565b8114613b7257600080fd5b50565b613b7e8161339d565b8114613b8957600080fd5b50565b613b95816133a7565b8114613ba057600080fd5b50565b613bac816133d3565b8114613bb757600080fd5b50565b613bc381613401565b8114613bce57600080fd5b5056fea2646970667358221220aee593611204bc211f09b42fd57195bc08aeeb4461cace2114b5c9fb6b51df4464736f6c63430008070033",
    "linkReferences": {},
    "deployedLinkReferences": {}
}