{
  "_format": "hh-sol-artifact-1",
  "contractName": "ldgSwap",
  "sourceName": "contracts/defi-swap.sol",
  "abi": [
    {
      "anonymous": false,
      "inputs": [
        {
          "indexed": false,
          "internalType": "uint8",
          "name": "version",
          "type": "uint8"
        }
      ],
      "name": "Initialized",
      "type": "event"
    },
    {
      "anonymous": false,
      "inputs": [
        {
          "indexed": true,
          "internalType": "address",
          "name": "previousOwner",
          "type": "address"
        },
        {
          "indexed": true,
          "internalType": "address",
          "name": "newOwner",
          "type": "address"
        }
      ],
      "name": "OwnershipTransferred",
      "type": "event"
    },
    {
      "anonymous": false,
      "inputs": [
        {
          "indexed": false,
          "internalType": "address",
          "name": "account",
          "type": "address"
        }
      ],
      "name": "Paused",
      "type": "event"
    },
    {
      "anonymous": false,
      "inputs": [
        {
          "indexed": false,
          "internalType": "address",
          "name": "account",
          "type": "address"
        }
      ],
      "name": "Unpaused",
      "type": "event"
    },
    {
      "inputs": [
        {
          "internalType": "uint256",
          "name": "amount",
          "type": "uint256"
        }
      ],
      "name": "deposit",
      "outputs": [],
      "stateMutability": "nonpayable",
      "type": "function"
    },
    {
      "inputs": [
        {
          "internalType": "uint256",
          "name": "amount",
          "type": "uint256"
        }
      ],
      "name": "getAmountLTY",
      "outputs": [
        {
          "internalType": "uint256",
          "name": "",
          "type": "uint256"
        }
      ],
      "stateMutability": "view",
      "type": "function"
    },
    {
      "inputs": [
        {
          "internalType": "uint256",
          "name": "amount",
          "type": "uint256"
        }
      ],
      "name": "getAmountUSD",
      "outputs": [
        {
          "internalType": "uint256",
          "name": "",
          "type": "uint256"
        }
      ],
      "stateMutability": "view",
      "type": "function"
    },
    {
      "inputs": [],
      "name": "initialize",
      "outputs": [],
      "stateMutability": "nonpayable",
      "type": "function"
    },
    {
      "inputs": [],
      "name": "owner",
      "outputs": [
        {
          "internalType": "address",
          "name": "",
          "type": "address"
        }
      ],
      "stateMutability": "view",
      "type": "function"
    },
    {
      "inputs": [],
      "name": "pause",
      "outputs": [],
      "stateMutability": "nonpayable",
      "type": "function"
    },
    {
      "inputs": [],
      "name": "paused",
      "outputs": [
        {
          "internalType": "bool",
          "name": "",
          "type": "bool"
        }
      ],
      "stateMutability": "view",
      "type": "function"
    },
    {
      "inputs": [],
      "name": "renounceOwnership",
      "outputs": [],
      "stateMutability": "nonpayable",
      "type": "function"
    },
    {
      "inputs": [
        {
          "internalType": "address",
          "name": "_wallet",
          "type": "address"
        }
      ],
      "name": "setFundWallet",
      "outputs": [],
      "stateMutability": "nonpayable",
      "type": "function"
    },
    {
      "inputs": [
        {
          "internalType": "address",
          "name": "_token",
          "type": "address"
        }
      ],
      "name": "setToken",
      "outputs": [],
      "stateMutability": "nonpayable",
      "type": "function"
    },
    {
      "inputs": [
        {
          "internalType": "address",
          "name": "_token",
          "type": "address"
        }
      ],
      "name": "setTokenUSD",
      "outputs": [],
      "stateMutability": "nonpayable",
      "type": "function"
    },
    {
      "inputs": [
        {
          "internalType": "uint8",
          "name": "decimal",
          "type": "uint8"
        }
      ],
      "name": "setUsdDecimal",
      "outputs": [],
      "stateMutability": "nonpayable",
      "type": "function"
    },
    {
      "inputs": [
        {
          "internalType": "address",
          "name": "newOwner",
          "type": "address"
        }
      ],
      "name": "transferOwnership",
      "outputs": [],
      "stateMutability": "nonpayable",
      "type": "function"
    },
    {
      "inputs": [],
      "name": "unpause",
      "outputs": [],
      "stateMutability": "nonpayable",
      "type": "function"
    },
    {
      "inputs": [],
      "name": "usd_decimal",
      "outputs": [
        {
          "internalType": "uint8",
          "name": "",
          "type": "uint8"
        }
      ],
      "stateMutability": "view",
      "type": "function"
    },
    {
      "inputs": [
        {
          "internalType": "uint256",
          "name": "amount",
          "type": "uint256"
        }
      ],
      "name": "withdraw",
      "outputs": [],
      "stateMutability": "nonpayable",
      "type": "function"
    }
  ],
  "bytecode": "0x608060405234801561001057600080fd5b5061251e806100206000396000f3fe608060405234801561001057600080fd5b50600436106101005760003560e01c806379ceb2591161009757806395420f751161006657806395420f751461023957806399401cac14610255578063b6b55f2514610273578063f2fde38b1461028f57610100565b806379ceb259146101eb5780638129fc1c146102075780638456cb59146102115780638da5cb5b1461021b57610100565b806355ce3b9a116100d357806355ce3b9a146101775780635c975abb146101935780636f1b35fd146101b1578063715018a6146101e157610100565b80630964efcb14610105578063144fa6d7146101355780632e1a7d4d146101515780633f4ba83a1461016d575b600080fd5b61011f600480360381019061011a919061179c565b6102ab565b60405161012c9190611d35565b60405180910390f35b61014f600480360381019061014a9190611742565b6102e7565b005b61016b6004803603810190610166919061179c565b610374565b005b610175610993565b005b610191600480360381019061018c9190611742565b6109a5565b005b61019b6109f1565b6040516101a89190611b1f565b60405180910390f35b6101cb60048036038101906101c6919061179c565b610a08565b6040516101d89190611d35565b60405180910390f35b6101e9610a44565b005b610205600480360381019061020091906117f6565b610a58565b005b61020f610a7e565b005b610219610be0565b005b610223610bf2565b6040516102309190611a7b565b60405180910390f35b610253600480360381019061024e9190611742565b610c1c565b005b61025d610ca9565b60405161026a9190611d50565b60405180910390f35b61028d6004803603810190610288919061179c565b610cbc565b005b6102a960048036038101906102a49190611742565b61120e565b005b6000609d60009054906101000a900460ff1660126102c99190611f78565b600a6102d59190611e00565b826102e09190611f1e565b9050919050565b6102ef611292565b80609b60006101000a81548173ffffffffffffffffffffffffffffffffffffffff021916908373ffffffffffffffffffffffffffffffffffffffff16021790555080609760006101000a81548173ffffffffffffffffffffffffffffffffffffffff021916908373ffffffffffffffffffffffffffffffffffffffff16021790555050565b600073ffffffffffffffffffffffffffffffffffffffff16609860009054906101000a900473ffffffffffffffffffffffffffffffffffffffff1673ffffffffffffffffffffffffffffffffffffffff161415610406576040517f08c379a00000000000000000000000000000000000000000000000000000000081526004016103fd90611c95565b60405180910390fd5b600073ffffffffffffffffffffffffffffffffffffffff16609760009054906101000a900473ffffffffffffffffffffffffffffffffffffffff1673ffffffffffffffffffffffffffffffffffffffff161415610498576040517f08c379a000000000000000000000000000000000000000000000000000000000815260040161048f90611c35565b60405180910390fd5b600073ffffffffffffffffffffffffffffffffffffffff16609960009054906101000a900473ffffffffffffffffffffffffffffffffffffffff1673ffffffffffffffffffffffffffffffffffffffff16141561052a576040517f08c379a000000000000000000000000000000000000000000000000000000000815260040161052190611b55565b60405180910390fd5b610532611310565b80609b60009054906101000a900473ffffffffffffffffffffffffffffffffffffffff1673ffffffffffffffffffffffffffffffffffffffff166370a08231336040518263ffffffff1660e01b815260040161058e9190611a7b565b60206040518083038186803b1580156105a657600080fd5b505afa1580156105ba573d6000803e3d6000fd5b505050506040513d601f19601f820116820180604052508101906105de91906117c9565b101561061f576040517f08c379a000000000000000000000000000000000000000000000000000000000815260040161061690611bd5565b60405180910390fd5b80609b60009054906101000a900473ffffffffffffffffffffffffffffffffffffffff1673ffffffffffffffffffffffffffffffffffffffff1663dd62ed3e33306040518363ffffffff1660e01b815260040161067d929190611a96565b60206040518083038186803b15801561069557600080fd5b505afa1580156106a9573d6000803e3d6000fd5b505050506040513d601f19601f820116820180604052508101906106cd91906117c9565b101561070e576040517f08c379a000000000000000000000000000000000000000000000000000000000815260040161070590611d15565b60405180910390fd5b600061071982610a08565b905080609a60009054906101000a900473ffffffffffffffffffffffffffffffffffffffff1673ffffffffffffffffffffffffffffffffffffffff1663dd62ed3e609960009054906101000a900473ffffffffffffffffffffffffffffffffffffffff16306040518363ffffffff1660e01b815260040161079b929190611a96565b60206040518083038186803b1580156107b357600080fd5b505afa1580156107c7573d6000803e3d6000fd5b505050506040513d601f19601f820116820180604052508101906107eb91906117c9565b101561082c576040517f08c379a000000000000000000000000000000000000000000000000000000000815260040161082390611cf5565b60405180910390fd5b609b60009054906101000a900473ffffffffffffffffffffffffffffffffffffffff1673ffffffffffffffffffffffffffffffffffffffff166379cc679033846040518363ffffffff1660e01b8152600401610889929190611af6565b600060405180830381600087803b1580156108a357600080fd5b505af11580156108b7573d6000803e3d6000fd5b50505050609a60009054906101000a900473ffffffffffffffffffffffffffffffffffffffff1673ffffffffffffffffffffffffffffffffffffffff166323b872dd609960009054906101000a900473ffffffffffffffffffffffffffffffffffffffff1633846040518463ffffffff1660e01b815260040161093c93929190611abf565b602060405180830381600087803b15801561095657600080fd5b505af115801561096a573d6000803e3d6000fd5b505050506040513d601f19601f8201168201806040525081019061098e919061176f565b505050565b61099b611292565b6109a361135a565b565b6109ad611292565b80609960006101000a81548173ffffffffffffffffffffffffffffffffffffffff021916908373ffffffffffffffffffffffffffffffffffffffff16021790555050565b6000603360009054906101000a900460ff16905090565b6000609d60009054906101000a900460ff166012610a269190611f78565b600a610a329190611e00565b82610a3d9190611d7c565b9050919050565b610a4c611292565b610a5660006113bd565b565b610a60611292565b80609d60006101000a81548160ff021916908360ff16021790555050565b60008060019054906101000a900460ff16159050808015610aaf5750600160008054906101000a900460ff1660ff16105b80610adc5750610abe30611483565b158015610adb5750600160008054906101000a900460ff1660ff16145b5b610b1b576040517f08c379a0000000000000000000000000000000000000000000000000000000008152600401610b1290611c15565b60405180910390fd5b60016000806101000a81548160ff021916908360ff1602179055508015610b58576001600060016101000a81548160ff0219169083151502179055505b610b606114a6565b610b686114ff565b6006609d60006101000a81548160ff021916908360ff1602179055508015610bdd5760008060016101000a81548160ff0219169083151502179055507f7f26b83ff96e1f2b6a682f133852f6798a09c465da95921460cefb38474024986001604051610bd49190611b3a565b60405180910390a15b50565b610be8611292565b610bf0611558565b565b6000606560009054906101000a900473ffffffffffffffffffffffffffffffffffffffff16905090565b610c24611292565b80609a60006101000a81548173ffffffffffffffffffffffffffffffffffffffff021916908373ffffffffffffffffffffffffffffffffffffffff16021790555080609860006101000a81548173ffffffffffffffffffffffffffffffffffffffff021916908373ffffffffffffffffffffffffffffffffffffffff16021790555050565b609d60009054906101000a900460ff1681565b600073ffffffffffffffffffffffffffffffffffffffff16609860009054906101000a900473ffffffffffffffffffffffffffffffffffffffff1673ffffffffffffffffffffffffffffffffffffffff161415610d4e576040517f08c379a0000000000000000000000000000000000000000000000000000000008152600401610d4590611c95565b60405180910390fd5b600073ffffffffffffffffffffffffffffffffffffffff16609760009054906101000a900473ffffffffffffffffffffffffffffffffffffffff1673ffffffffffffffffffffffffffffffffffffffff161415610de0576040517f08c379a0000000000000000000000000000000000000000000000000000000008152600401610dd790611c35565b60405180910390fd5b600073ffffffffffffffffffffffffffffffffffffffff16609960009054906101000a900473ffffffffffffffffffffffffffffffffffffffff1673ffffffffffffffffffffffffffffffffffffffff161415610e72576040517f08c379a0000000000000000000000000000000000000000000000000000000008152600401610e6990611b55565b60405180910390fd5b610e7a611310565b80609a60009054906101000a900473ffffffffffffffffffffffffffffffffffffffff1673ffffffffffffffffffffffffffffffffffffffff166370a08231336040518263ffffffff1660e01b8152600401610ed69190611a7b565b60206040518083038186803b158015610eee57600080fd5b505afa158015610f02573d6000803e3d6000fd5b505050506040513d601f19601f82011682018060405250810190610f2691906117c9565b1015610f67576040517f08c379a0000000000000000000000000000000000000000000000000000000008152600401610f5e90611cb5565b60405180910390fd5b80609a60009054906101000a900473ffffffffffffffffffffffffffffffffffffffff1673ffffffffffffffffffffffffffffffffffffffff1663dd62ed3e33306040518363ffffffff1660e01b8152600401610fc5929190611a96565b60206040518083038186803b158015610fdd57600080fd5b505afa158015610ff1573d6000803e3d6000fd5b505050506040513d601f19601f8201168201806040525081019061101591906117c9565b1015611056576040517f08c379a000000000000000000000000000000000000000000000000000000000815260040161104d90611c75565b60405180910390fd5b6000611061826102ab565b90506000609a60009054906101000a900473ffffffffffffffffffffffffffffffffffffffff1673ffffffffffffffffffffffffffffffffffffffff166323b872dd33609960009054906101000a900473ffffffffffffffffffffffffffffffffffffffff16866040518463ffffffff1660e01b81526004016110e693929190611abf565b602060405180830381600087803b15801561110057600080fd5b505af1158015611114573d6000803e3d6000fd5b505050506040513d601f19601f82011682018060405250810190611138919061176f565b90508061117a576040517f08c379a000000000000000000000000000000000000000000000000000000000815260040161117190611bb5565b60405180910390fd5b609b60009054906101000a900473ffffffffffffffffffffffffffffffffffffffff1673ffffffffffffffffffffffffffffffffffffffff166340c10f1933846040518363ffffffff1660e01b81526004016111d7929190611af6565b600060405180830381600087803b1580156111f157600080fd5b505af1158015611205573d6000803e3d6000fd5b50505050505050565b611216611292565b600073ffffffffffffffffffffffffffffffffffffffff168173ffffffffffffffffffffffffffffffffffffffff161415611286576040517f08c379a000000000000000000000000000000000000000000000000000000000815260040161127d90611b95565b60405180910390fd5b61128f816113bd565b50565b61129a6115bb565b73ffffffffffffffffffffffffffffffffffffffff166112b8610bf2565b73ffffffffffffffffffffffffffffffffffffffff161461130e576040517f08c379a000000000000000000000000000000000000000000000000000000000815260040161130590611c55565b60405180910390fd5b565b6113186109f1565b15611358576040517f08c379a000000000000000000000000000000000000000000000000000000000815260040161134f90611bf5565b60405180910390fd5b565b6113626115c3565b6000603360006101000a81548160ff0219169083151502179055507f5db9ee0a495bf2e6ff9c91a7834c1ba4fdd244a5e8aa4e537bd38aeae4b073aa6113a66115bb565b6040516113b39190611a7b565b60405180910390a1565b6000606560009054906101000a900473ffffffffffffffffffffffffffffffffffffffff16905081606560006101000a81548173ffffffffffffffffffffffffffffffffffffffff021916908373ffffffffffffffffffffffffffffffffffffffff1602179055508173ffffffffffffffffffffffffffffffffffffffff168173ffffffffffffffffffffffffffffffffffffffff167f8be0079c531659141344cd1fd0a4f28419497f9722a3daafe3b4186f6b6457e060405160405180910390a35050565b6000808273ffffffffffffffffffffffffffffffffffffffff163b119050919050565b600060019054906101000a900460ff166114f5576040517f08c379a00000000000000000000000000000000000000000000000000000000081526004016114ec90611cd5565b60405180910390fd5b6114fd61160c565b565b600060019054906101000a900460ff1661154e576040517f08c379a000000000000000000000000000000000000000000000000000000000815260040161154590611cd5565b60405180910390fd5b61155661166d565b565b611560611310565b6001603360006101000a81548160ff0219169083151502179055507f62e78cea01bee320cd4e420270b5ea74000d11b0c9f74754ebdbfc544b05a2586115a46115bb565b6040516115b19190611a7b565b60405180910390a1565b600033905090565b6115cb6109f1565b61160a576040517f08c379a000000000000000000000000000000000000000000000000000000000815260040161160190611b75565b60405180910390fd5b565b600060019054906101000a900460ff1661165b576040517f08c379a000000000000000000000000000000000000000000000000000000000815260040161165290611cd5565b60405180910390fd5b61166b6116666115bb565b6113bd565b565b600060019054906101000a900460ff166116bc576040517f08c379a00000000000000000000000000000000000000000000000000000000081526004016116b390611cd5565b60405180910390fd5b6000603360006101000a81548160ff021916908315150217905550565b6000813590506116e88161248c565b92915050565b6000815190506116fd816124a3565b92915050565b600081359050611712816124ba565b92915050565b600081519050611727816124ba565b92915050565b60008135905061173c816124d1565b92915050565b60006020828403121561175857611757612071565b5b6000611766848285016116d9565b91505092915050565b60006020828403121561178557611784612071565b5b6000611793848285016116ee565b91505092915050565b6000602082840312156117b2576117b1612071565b5b60006117c084828501611703565b91505092915050565b6000602082840312156117df576117de612071565b5b60006117ed84828501611718565b91505092915050565b60006020828403121561180c5761180b612071565b5b600061181a8482850161172d565b91505092915050565b61182c81611fac565b82525050565b61183b81611fbe565b82525050565b61184a81612001565b82525050565b600061185d602283611d6b565b915061186882612083565b604082019050919050565b6000611880601483611d6b565b915061188b826120d2565b602082019050919050565b60006118a3602683611d6b565b91506118ae826120fb565b604082019050919050565b60006118c6602f83611d6b565b91506118d18261214a565b604082019050919050565b60006118e9602883611d6b565b91506118f482612199565b604082019050919050565b600061190c601083611d6b565b9150611917826121e8565b602082019050919050565b600061192f602e83611d6b565b915061193a82612211565b604082019050919050565b6000611952602083611d6b565b915061195d82612260565b602082019050919050565b6000611975602083611d6b565b915061198082612289565b602082019050919050565b6000611998604983611d6b565b91506119a3826122b2565b606082019050919050565b60006119bb602083611d6b565b91506119c682612327565b602082019050919050565b60006119de602b83611d6b565b91506119e982612350565b604082019050919050565b6000611a01602b83611d6b565b9150611a0c8261239f565b604082019050919050565b6000611a24603883611d6b565b9150611a2f826123ee565b604082019050919050565b6000611a47602d83611d6b565b9150611a528261243d565b604082019050919050565b611a6681611fea565b82525050565b611a7581611ff4565b82525050565b6000602082019050611a906000830184611823565b92915050565b6000604082019050611aab6000830185611823565b611ab86020830184611823565b9392505050565b6000606082019050611ad46000830186611823565b611ae16020830185611823565b611aee6040830184611a5d565b949350505050565b6000604082019050611b0b6000830185611823565b611b186020830184611a5d565b9392505050565b6000602082019050611b346000830184611832565b92915050565b6000602082019050611b4f6000830184611841565b92915050565b60006020820190508181036000830152611b6e81611850565b9050919050565b60006020820190508181036000830152611b8e81611873565b9050919050565b60006020820190508181036000830152611bae81611896565b9050919050565b60006020820190508181036000830152611bce816118b9565b9050919050565b60006020820190508181036000830152611bee816118dc565b9050919050565b60006020820190508181036000830152611c0e816118ff565b9050919050565b60006020820190508181036000830152611c2e81611922565b9050919050565b60006020820190508181036000830152611c4e81611945565b9050919050565b60006020820190508181036000830152611c6e81611968565b9050919050565b60006020820190508181036000830152611c8e8161198b565b9050919050565b60006020820190508181036000830152611cae816119ae565b9050919050565b60006020820190508181036000830152611cce816119d1565b9050919050565b60006020820190508181036000830152611cee816119f4565b9050919050565b60006020820190508181036000830152611d0e81611a17565b9050919050565b60006020820190508181036000830152611d2e81611a3a565b9050919050565b6000602082019050611d4a6000830184611a5d565b92915050565b6000602082019050611d656000830184611a6c565b92915050565b600082825260208201905092915050565b6000611d8782611fea565b9150611d9283611fea565b925082611da257611da1612042565b5b828204905092915050565b6000808291508390505b6001851115611df757808604811115611dd357611dd2612013565b5b6001851615611de25780820291505b8081029050611df085612076565b9450611db7565b94509492505050565b6000611e0b82611fea565b9150611e1683611ff4565b9250611e437fffffffffffffffffffffffffffffffffffffffffffffffffffffffffffffffff8484611e4b565b905092915050565b600082611e5b5760019050611f17565b81611e695760009050611f17565b8160018114611e7f5760028114611e8957611eb8565b6001915050611f17565b60ff841115611e9b57611e9a612013565b5b8360020a915084821115611eb257611eb1612013565b5b50611f17565b5060208310610133831016604e8410600b8410161715611eed5782820a905083811115611ee857611ee7612013565b5b611f17565b611efa8484846001611dad565b92509050818404811115611f1157611f10612013565b5b81810290505b9392505050565b6000611f2982611fea565b9150611f3483611fea565b9250817fffffffffffffffffffffffffffffffffffffffffffffffffffffffffffffffff0483118215151615611f6d57611f6c612013565b5b828202905092915050565b6000611f8382611ff4565b9150611f8e83611ff4565b925082821015611fa157611fa0612013565b5b828203905092915050565b6000611fb782611fca565b9050919050565b60008115159050919050565b600073ffffffffffffffffffffffffffffffffffffffff82169050919050565b6000819050919050565b600060ff82169050919050565b600061200c82611ff4565b9050919050565b7f4e487b7100000000000000000000000000000000000000000000000000000000600052601160045260246000fd5b7f4e487b7100000000000000000000000000000000000000000000000000000000600052601260045260246000fd5b600080fd5b60008160011c9050919050565b7f46756e642057616c6c657420616464726573732063616e6e6f7420626520307860008201527f302e000000000000000000000000000000000000000000000000000000000000602082015250565b7f5061757361626c653a206e6f7420706175736564000000000000000000000000600082015250565b7f4f776e61626c653a206e6577206f776e657220697320746865207a65726f206160008201527f6464726573730000000000000000000000000000000000000000000000000000602082015250565b7f546865205472616e7366657220686173206265656e206661696c65642c20706c60008201527f656173652074727920616761696e2e0000000000000000000000000000000000602082015250565b7f596f7520646f6e2774206861766520656e6f756768206d6f6e657920746f207760008201527f697468647261772e000000000000000000000000000000000000000000000000602082015250565b7f5061757361626c653a2070617573656400000000000000000000000000000000600082015250565b7f496e697469616c697a61626c653a20636f6e747261637420697320616c72656160008201527f647920696e697469616c697a6564000000000000000000000000000000000000602082015250565b7f546f6b656e204c444720616464726573732063616e6e6f74206265203078302e600082015250565b7f4f776e61626c653a2063616c6c6572206973206e6f7420746865206f776e6572600082015250565b7f54686520636f6e747261637420686173206e6f7420616c6c6f77656420656e6f60008201527f7567682055534420546f6b656e206f6e2074686520636f6e747261637420746f60208201527f207370656e642069740000000000000000000000000000000000000000000000604082015250565b7f55534420546f6b656e20616464726573732063616e6e6f74206265203078302e600082015250565b7f596f75206e65656420746f206861766520656e6f7567682055534420696e207960008201527f6f75722062616c616e6365000000000000000000000000000000000000000000602082015250565b7f496e697469616c697a61626c653a20636f6e7472616374206973206e6f74206960008201527f6e697469616c697a696e67000000000000000000000000000000000000000000602082015250565b7f5468652066756e642077616c6c6574206861736e277420616c6c6f776564206560008201527f6e6f75676820746f6b656e20746f2077697468647261772e0000000000000000602082015250565b7f596f7520686176656e277420616c6c6f77656420656e6f75676820746f6b656e60008201527f20746f2077697468647261772e00000000000000000000000000000000000000602082015250565b61249581611fac565b81146124a057600080fd5b50565b6124ac81611fbe565b81146124b757600080fd5b50565b6124c381611fea565b81146124ce57600080fd5b50565b6124da81611ff4565b81146124e557600080fd5b5056fea2646970667358221220ace7072405739ced37a4af927d269878b0aea04af1860bc8ed36c4663834697e64736f6c63430008070033",
  "linkReferences": {},
  "deployedLinkReferences": {}
}