{
  "_format": "hh-sol-artifact-1",
  "contractName": "usd",
  "sourceName": "contracts/usdToken.sol",
  "abi": [
    {
      "inputs": [],
      "stateMutability": "nonpayable",
      "type": "constructor"
    },
    {
      "anonymous": false,
      "inputs": [
        {
          "indexed": true,
          "internalType": "address",
          "name": "owner",
          "type": "address"
        },
        {
          "indexed": true,
          "internalType": "address",
          "name": "spender",
          "type": "address"
        },
        {
          "indexed": false,
          "internalType": "uint256",
          "name": "value",
          "type": "uint256"
        }
      ],
      "name": "Approval",
      "type": "event"
    },
    {
      "anonymous": false,
      "inputs": [
        {
          "indexed": true,
          "internalType": "address",
          "name": "previousOwner",
          "type": "address"
        },
        {
          "indexed": true,
          "internalType": "address",
          "name": "newOwner",
          "type": "address"
        }
      ],
      "name": "OwnershipTransferred",
      "type": "event"
    },
    {
      "anonymous": false,
      "inputs": [
        {
          "indexed": true,
          "internalType": "address",
          "name": "from",
          "type": "address"
        },
        {
          "indexed": true,
          "internalType": "address",
          "name": "to",
          "type": "address"
        },
        {
          "indexed": false,
          "internalType": "uint256",
          "name": "value",
          "type": "uint256"
        }
      ],
      "name": "Transfer",
      "type": "event"
    },
    {
      "inputs": [
        {
          "internalType": "address",
          "name": "owner",
          "type": "address"
        },
        {
          "internalType": "address",
          "name": "spender",
          "type": "address"
        }
      ],
      "name": "allowance",
      "outputs": [
        {
          "internalType": "uint256",
          "name": "",
          "type": "uint256"
        }
      ],
      "stateMutability": "view",
      "type": "function"
    },
    {
      "inputs": [
        {
          "internalType": "address",
          "name": "spender",
          "type": "address"
        },
        {
          "internalType": "uint256",
          "name": "amount",
          "type": "uint256"
        }
      ],
      "name": "approve",
      "outputs": [
        {
          "internalType": "bool",
          "name": "",
          "type": "bool"
        }
      ],
      "stateMutability": "nonpayable",
      "type": "function"
    },
    {
      "inputs": [
        {
          "internalType": "address",
          "name": "account",
          "type": "address"
        }
      ],
      "name": "balanceOf",
      "outputs": [
        {
          "internalType": "uint256",
          "name": "",
          "type": "uint256"
        }
      ],
      "stateMutability": "view",
      "type": "function"
    },
    {
      "inputs": [],
      "name": "decimals",
      "outputs": [
        {
          "internalType": "uint8",
          "name": "",
          "type": "uint8"
        }
      ],
      "stateMutability": "view",
      "type": "function"
    },
    {
      "inputs": [
        {
          "internalType": "address",
          "name": "spender",
          "type": "address"
        },
        {
          "internalType": "uint256",
          "name": "subtractedValue",
          "type": "uint256"
        }
      ],
      "name": "decreaseAllowance",
      "outputs": [
        {
          "internalType": "bool",
          "name": "",
          "type": "bool"
        }
      ],
      "stateMutability": "nonpayable",
      "type": "function"
    },
    {
      "inputs": [
        {
          "internalType": "address",
          "name": "spender",
          "type": "address"
        },
        {
          "internalType": "uint256",
          "name": "addedValue",
          "type": "uint256"
        }
      ],
      "name": "increaseAllowance",
      "outputs": [
        {
          "internalType": "bool",
          "name": "",
          "type": "bool"
        }
      ],
      "stateMutability": "nonpayable",
      "type": "function"
    },
    {
      "inputs": [
        {
          "internalType": "address",
          "name": "_to",
          "type": "address"
        },
        {
          "internalType": "uint256",
          "name": "_amount",
          "type": "uint256"
        }
      ],
      "name": "mint",
      "outputs": [],
      "stateMutability": "nonpayable",
      "type": "function"
    },
    {
      "inputs": [],
      "name": "name",
      "outputs": [
        {
          "internalType": "string",
          "name": "",
          "type": "string"
        }
      ],
      "stateMutability": "view",
      "type": "function"
    },
    {
      "inputs": [],
      "name": "owner",
      "outputs": [
        {
          "internalType": "address",
          "name": "",
          "type": "address"
        }
      ],
      "stateMutability": "view",
      "type": "function"
    },
    {
      "inputs": [],
      "name": "renounceOwnership",
      "outputs": [],
      "stateMutability": "nonpayable",
      "type": "function"
    },
    {
      "inputs": [],
      "name": "symbol",
      "outputs": [
        {
          "internalType": "string",
          "name": "",
          "type": "string"
        }
      ],
      "stateMutability": "view",
      "type": "function"
    },
    {
      "inputs": [],
      "name": "totalSupply",
      "outputs": [
        {
          "internalType": "uint256",
          "name": "",
          "type": "uint256"
        }
      ],
      "stateMutability": "view",
      "type": "function"
    },
    {
      "inputs": [
        {
          "internalType": "address",
          "name": "to",
          "type": "address"
        },
        {
          "internalType": "uint256",
          "name": "amount",
          "type": "uint256"
        }
      ],
      "name": "transfer",
      "outputs": [
        {
          "internalType": "bool",
          "name": "",
          "type": "bool"
        }
      ],
      "stateMutability": "nonpayable",
      "type": "function"
    },
    {
      "inputs": [
        {
          "internalType": "address",
          "name": "from",
          "type": "address"
        },
        {
          "internalType": "address",
          "name": "to",
          "type": "address"
        },
        {
          "internalType": "uint256",
          "name": "amount",
          "type": "uint256"
        }
      ],
      "name": "transferFrom",
      "outputs": [
        {
          "internalType": "bool",
          "name": "",
          "type": "bool"
        }
      ],
      "stateMutability": "nonpayable",
      "type": "function"
    },
    {
      "inputs": [
        {
          "internalType": "address",
          "name": "newOwner",
          "type": "address"
        }
      ],
      "name": "transferOwnership",
      "outputs": [],
      "stateMutability": "nonpayable",
      "type": "function"
    },
    {
      "inputs": [
        {
          "internalType": "uint256",
          "name": "_amount",
          "type": "uint256"
        }
      ],
      "name": "withdraw",
      "outputs": [],
      "stateMutability": "nonpayable",
      "type": "function"
    }
  ],
  "bytecode": "0x60806040523480156200001157600080fd5b506040518060400160405280600381526020017f75736400000000000000000000000000000000000000000000000000000000008152506040518060400160405280600381526020017f5553440000000000000000000000000000000000000000000000000000000000815250816003908051906020019062000096929190620001a6565b508060049080519060200190620000af929190620001a6565b505050620000d2620000c6620000d860201b60201c565b620000e060201b60201c565b620002bb565b600033905090565b6000600560009054906101000a900473ffffffffffffffffffffffffffffffffffffffff16905081600560006101000a81548173ffffffffffffffffffffffffffffffffffffffff021916908373ffffffffffffffffffffffffffffffffffffffff1602179055508173ffffffffffffffffffffffffffffffffffffffff168173ffffffffffffffffffffffffffffffffffffffff167f8be0079c531659141344cd1fd0a4f28419497f9722a3daafe3b4186f6b6457e060405160405180910390a35050565b828054620001b49062000256565b90600052602060002090601f016020900481019282620001d8576000855562000224565b82601f10620001f357805160ff191683800117855562000224565b8280016001018555821562000224579182015b828111156200022357825182559160200191906001019062000206565b5b50905062000233919062000237565b5090565b5b808211156200025257600081600090555060010162000238565b5090565b600060028204905060018216806200026f57607f821691505b602082108114156200028657620002856200028c565b5b50919050565b7f4e487b7100000000000000000000000000000000000000000000000000000000600052602260045260246000fd5b611bc580620002cb6000396000f3fe608060405234801561001057600080fd5b50600436106101005760003560e01c806370a0823111610097578063a457c2d711610066578063a457c2d71461029d578063a9059cbb146102cd578063dd62ed3e146102fd578063f2fde38b1461032d57610100565b806370a0823114610227578063715018a6146102575780638da5cb5b1461026157806395d89b411461027f57610100565b80632e1a7d4d116100d35780632e1a7d4d146101a1578063313ce567146101bd57806339509351146101db57806340c10f191461020b57610100565b806306fdde0314610105578063095ea7b31461012357806318160ddd1461015357806323b872dd14610171575b600080fd5b61010d610349565b60405161011a919061144d565b60405180910390f35b61013d60048036038101906101389190611191565b6103db565b60405161014a9190611432565b60405180910390f35b61015b6103fe565b60405161016891906115ef565b60405180910390f35b61018b6004803603810190610186919061113e565b610408565b6040516101989190611432565b60405180910390f35b6101bb60048036038101906101b691906111d1565b610437565b005b6101c5610444565b6040516101d2919061160a565b60405180910390f35b6101f560048036038101906101f09190611191565b61044d565b6040516102029190611432565b60405180910390f35b61022560048036038101906102209190611191565b610484565b005b610241600480360381019061023c91906110d1565b6104a0565b60405161024e91906115ef565b60405180910390f35b61025f6104e8565b005b6102696104fc565b6040516102769190611417565b60405180910390f35b610287610526565b604051610294919061144d565b60405180910390f35b6102b760048036038101906102b29190611191565b6105b8565b6040516102c49190611432565b60405180910390f35b6102e760048036038101906102e29190611191565b61062f565b6040516102f49190611432565b60405180910390f35b610317600480360381019061031291906110fe565b610652565b60405161032491906115ef565b60405180910390f35b610347600480360381019061034291906110d1565b6106d9565b005b60606003805461035890611779565b80601f016020809104026020016040519081016040528092919081815260200182805461038490611779565b80156103d15780601f106103a6576101008083540402835291602001916103d1565b820191906000526020600020905b8154815290600101906020018083116103b457829003601f168201915b5050505050905090565b6000806103e661075d565b90506103f3818585610765565b600191505092915050565b6000600254905090565b60008061041361075d565b9050610420858285610930565b61042b8585856109bc565b60019150509392505050565b6104413382610c34565b50565b60006006905090565b60008061045861075d565b905061047981858561046a8589610652565b6104749190611641565b610765565b600191505092915050565b61049c82620f4240836104979190611697565b610e02565b5050565b60008060008373ffffffffffffffffffffffffffffffffffffffff1673ffffffffffffffffffffffffffffffffffffffff168152602001908152602001600020549050919050565b6104f0610f59565b6104fa6000610fd7565b565b6000600560009054906101000a900473ffffffffffffffffffffffffffffffffffffffff16905090565b60606004805461053590611779565b80601f016020809104026020016040519081016040528092919081815260200182805461056190611779565b80156105ae5780601f10610583576101008083540402835291602001916105ae565b820191906000526020600020905b81548152906001019060200180831161059157829003601f168201915b5050505050905090565b6000806105c361075d565b905060006105d18286610652565b905083811015610616576040517f08c379a000000000000000000000000000000000000000000000000000000000815260040161060d906115af565b60405180910390fd5b6106238286868403610765565b60019250505092915050565b60008061063a61075d565b90506106478185856109bc565b600191505092915050565b6000600160008473ffffffffffffffffffffffffffffffffffffffff1673ffffffffffffffffffffffffffffffffffffffff16815260200190815260200160002060008373ffffffffffffffffffffffffffffffffffffffff1673ffffffffffffffffffffffffffffffffffffffff16815260200190815260200160002054905092915050565b6106e1610f59565b600073ffffffffffffffffffffffffffffffffffffffff168173ffffffffffffffffffffffffffffffffffffffff161415610751576040517f08c379a0000000000000000000000000000000000000000000000000000000008152600401610748906114af565b60405180910390fd5b61075a81610fd7565b50565b600033905090565b600073ffffffffffffffffffffffffffffffffffffffff168373ffffffffffffffffffffffffffffffffffffffff1614156107d5576040517f08c379a00000000000000000000000000000000000000000000000000000000081526004016107cc9061158f565b60405180910390fd5b600073ffffffffffffffffffffffffffffffffffffffff168273ffffffffffffffffffffffffffffffffffffffff161415610845576040517f08c379a000000000000000000000000000000000000000000000000000000000815260040161083c906114cf565b60405180910390fd5b80600160008573ffffffffffffffffffffffffffffffffffffffff1673ffffffffffffffffffffffffffffffffffffffff16815260200190815260200160002060008473ffffffffffffffffffffffffffffffffffffffff1673ffffffffffffffffffffffffffffffffffffffff168152602001908152602001600020819055508173ffffffffffffffffffffffffffffffffffffffff168373ffffffffffffffffffffffffffffffffffffffff167f8c5be1e5ebec7d5bd14f71427d1e84f3dd0314c0f7b2291e5b200ac8c7c3b9258360405161092391906115ef565b60405180910390a3505050565b600061093c8484610652565b90507fffffffffffffffffffffffffffffffffffffffffffffffffffffffffffffffff81146109b657818110156109a8576040517f08c379a000000000000000000000000000000000000000000000000000000000815260040161099f906114ef565b60405180910390fd5b6109b58484848403610765565b5b50505050565b600073ffffffffffffffffffffffffffffffffffffffff168373ffffffffffffffffffffffffffffffffffffffff161415610a2c576040517f08c379a0000000000000000000000000000000000000000000000000000000008152600401610a239061156f565b60405180910390fd5b600073ffffffffffffffffffffffffffffffffffffffff168273ffffffffffffffffffffffffffffffffffffffff161415610a9c576040517f08c379a0000000000000000000000000000000000000000000000000000000008152600401610a939061146f565b60405180910390fd5b610aa783838361109d565b60008060008573ffffffffffffffffffffffffffffffffffffffff1673ffffffffffffffffffffffffffffffffffffffff16815260200190815260200160002054905081811015610b2d576040517f08c379a0000000000000000000000000000000000000000000000000000000008152600401610b249061150f565b60405180910390fd5b8181036000808673ffffffffffffffffffffffffffffffffffffffff1673ffffffffffffffffffffffffffffffffffffffff16815260200190815260200160002081905550816000808573ffffffffffffffffffffffffffffffffffffffff1673ffffffffffffffffffffffffffffffffffffffff168152602001908152602001600020600082825401925050819055508273ffffffffffffffffffffffffffffffffffffffff168473ffffffffffffffffffffffffffffffffffffffff167fddf252ad1be2c89b69c2b068fc378daa952ba7f163c4a11628f55a4df523b3ef84604051610c1b91906115ef565b60405180910390a3610c2e8484846110a2565b50505050565b600073ffffffffffffffffffffffffffffffffffffffff168273ffffffffffffffffffffffffffffffffffffffff161415610ca4576040517f08c379a0000000000000000000000000000000000000000000000000000000008152600401610c9b9061154f565b60405180910390fd5b610cb08260008361109d565b60008060008473ffffffffffffffffffffffffffffffffffffffff1673ffffffffffffffffffffffffffffffffffffffff16815260200190815260200160002054905081811015610d36576040517f08c379a0000000000000000000000000000000000000000000000000000000008152600401610d2d9061148f565b60405180910390fd5b8181036000808573ffffffffffffffffffffffffffffffffffffffff1673ffffffffffffffffffffffffffffffffffffffff1681526020019081526020016000208190555081600260008282540392505081905550600073ffffffffffffffffffffffffffffffffffffffff168373ffffffffffffffffffffffffffffffffffffffff167fddf252ad1be2c89b69c2b068fc378daa952ba7f163c4a11628f55a4df523b3ef84604051610de991906115ef565b60405180910390a3610dfd836000846110a2565b505050565b600073ffffffffffffffffffffffffffffffffffffffff168273ffffffffffffffffffffffffffffffffffffffff161415610e72576040517f08c379a0000000000000000000000000000000000000000000000000000000008152600401610e69906115cf565b60405180910390fd5b610e7e6000838361109d565b8060026000828254610e909190611641565b92505081905550806000808473ffffffffffffffffffffffffffffffffffffffff1673ffffffffffffffffffffffffffffffffffffffff168152602001908152602001600020600082825401925050819055508173ffffffffffffffffffffffffffffffffffffffff16600073ffffffffffffffffffffffffffffffffffffffff167fddf252ad1be2c89b69c2b068fc378daa952ba7f163c4a11628f55a4df523b3ef83604051610f4191906115ef565b60405180910390a3610f55600083836110a2565b5050565b610f6161075d565b73ffffffffffffffffffffffffffffffffffffffff16610f7f6104fc565b73ffffffffffffffffffffffffffffffffffffffff1614610fd5576040517f08c379a0000000000000000000000000000000000000000000000000000000008152600401610fcc9061152f565b60405180910390fd5b565b6000600560009054906101000a900473ffffffffffffffffffffffffffffffffffffffff16905081600560006101000a81548173ffffffffffffffffffffffffffffffffffffffff021916908373ffffffffffffffffffffffffffffffffffffffff1602179055508173ffffffffffffffffffffffffffffffffffffffff168173ffffffffffffffffffffffffffffffffffffffff167f8be0079c531659141344cd1fd0a4f28419497f9722a3daafe3b4186f6b6457e060405160405180910390a35050565b505050565b505050565b6000813590506110b681611b61565b92915050565b6000813590506110cb81611b78565b92915050565b6000602082840312156110e7576110e6611809565b5b60006110f5848285016110a7565b91505092915050565b6000806040838503121561111557611114611809565b5b6000611123858286016110a7565b9250506020611134858286016110a7565b9150509250929050565b60008060006060848603121561115757611156611809565b5b6000611165868287016110a7565b9350506020611176868287016110a7565b9250506040611187868287016110bc565b9150509250925092565b600080604083850312156111a8576111a7611809565b5b60006111b6858286016110a7565b92505060206111c7858286016110bc565b9150509250929050565b6000602082840312156111e7576111e6611809565b5b60006111f5848285016110bc565b91505092915050565b611207816116f1565b82525050565b61121681611703565b82525050565b600061122782611625565b6112318185611630565b9350611241818560208601611746565b61124a8161180e565b840191505092915050565b6000611262602383611630565b915061126d8261181f565b604082019050919050565b6000611285602283611630565b91506112908261186e565b604082019050919050565b60006112a8602683611630565b91506112b3826118bd565b604082019050919050565b60006112cb602283611630565b91506112d68261190c565b604082019050919050565b60006112ee601d83611630565b91506112f98261195b565b602082019050919050565b6000611311602683611630565b915061131c82611984565b604082019050919050565b6000611334602083611630565b915061133f826119d3565b602082019050919050565b6000611357602183611630565b9150611362826119fc565b604082019050919050565b600061137a602583611630565b915061138582611a4b565b604082019050919050565b600061139d602483611630565b91506113a882611a9a565b604082019050919050565b60006113c0602583611630565b91506113cb82611ae9565b604082019050919050565b60006113e3601f83611630565b91506113ee82611b38565b602082019050919050565b6114028161172f565b82525050565b61141181611739565b82525050565b600060208201905061142c60008301846111fe565b92915050565b6000602082019050611447600083018461120d565b92915050565b60006020820190508181036000830152611467818461121c565b905092915050565b6000602082019050818103600083015261148881611255565b9050919050565b600060208201905081810360008301526114a881611278565b9050919050565b600060208201905081810360008301526114c88161129b565b9050919050565b600060208201905081810360008301526114e8816112be565b9050919050565b60006020820190508181036000830152611508816112e1565b9050919050565b6000602082019050818103600083015261152881611304565b9050919050565b6000602082019050818103600083015261154881611327565b9050919050565b600060208201905081810360008301526115688161134a565b9050919050565b600060208201905081810360008301526115888161136d565b9050919050565b600060208201905081810360008301526115a881611390565b9050919050565b600060208201905081810360008301526115c8816113b3565b9050919050565b600060208201905081810360008301526115e8816113d6565b9050919050565b600060208201905061160460008301846113f9565b92915050565b600060208201905061161f6000830184611408565b92915050565b600081519050919050565b600082825260208201905092915050565b600061164c8261172f565b91506116578361172f565b9250827fffffffffffffffffffffffffffffffffffffffffffffffffffffffffffffffff0382111561168c5761168b6117ab565b5b828201905092915050565b60006116a28261172f565b91506116ad8361172f565b9250817fffffffffffffffffffffffffffffffffffffffffffffffffffffffffffffffff04831182151516156116e6576116e56117ab565b5b828202905092915050565b60006116fc8261170f565b9050919050565b60008115159050919050565b600073ffffffffffffffffffffffffffffffffffffffff82169050919050565b6000819050919050565b600060ff82169050919050565b60005b83811015611764578082015181840152602081019050611749565b83811115611773576000848401525b50505050565b6000600282049050600182168061179157607f821691505b602082108114156117a5576117a46117da565b5b50919050565b7f4e487b7100000000000000000000000000000000000000000000000000000000600052601160045260246000fd5b7f4e487b7100000000000000000000000000000000000000000000000000000000600052602260045260246000fd5b600080fd5b6000601f19601f8301169050919050565b7f45524332303a207472616e7366657220746f20746865207a65726f206164647260008201527f6573730000000000000000000000000000000000000000000000000000000000602082015250565b7f45524332303a206275726e20616d6f756e7420657863656564732062616c616e60008201527f6365000000000000000000000000000000000000000000000000000000000000602082015250565b7f4f776e61626c653a206e6577206f776e657220697320746865207a65726f206160008201527f6464726573730000000000000000000000000000000000000000000000000000602082015250565b7f45524332303a20617070726f766520746f20746865207a65726f20616464726560008201527f7373000000000000000000000000000000000000000000000000000000000000602082015250565b7f45524332303a20696e73756666696369656e7420616c6c6f77616e6365000000600082015250565b7f45524332303a207472616e7366657220616d6f756e742065786365656473206260008201527f616c616e63650000000000000000000000000000000000000000000000000000602082015250565b7f4f776e61626c653a2063616c6c6572206973206e6f7420746865206f776e6572600082015250565b7f45524332303a206275726e2066726f6d20746865207a65726f2061646472657360008201527f7300000000000000000000000000000000000000000000000000000000000000602082015250565b7f45524332303a207472616e736665722066726f6d20746865207a65726f20616460008201527f6472657373000000000000000000000000000000000000000000000000000000602082015250565b7f45524332303a20617070726f76652066726f6d20746865207a65726f2061646460008201527f7265737300000000000000000000000000000000000000000000000000000000602082015250565b7f45524332303a2064656372656173656420616c6c6f77616e63652062656c6f7760008201527f207a65726f000000000000000000000000000000000000000000000000000000602082015250565b7f45524332303a206d696e7420746f20746865207a65726f206164647265737300600082015250565b611b6a816116f1565b8114611b7557600080fd5b50565b611b818161172f565b8114611b8c57600080fd5b5056fea2646970667358221220b84456b1d87a9ce9c7a6d05186aa5b287f567be72d6233007bb8ba7a92bf560c64736f6c63430008070033",
  "linkReferences": {},
  "deployedLinkReferences": {}
}